{
  "_format": "hh-sol-artifact-1",
  "contractName": "TestChainID",
  "sourceName": "contracts/ChainID.sol",
  "abi": [
    {
      "inputs": [],
      "name": "currentChainID",
      "outputs": [
        {
          "internalType": "uint256",
          "name": "",
          "type": "uint256"
        }
      ],
      "stateMutability": "view",
      "type": "function"
    }
  ],
  "bytecode": "0x6080604052348015600f57600080fd5b50607680601d6000396000f3fe6080604052348015600f57600080fd5b506004361060285760003560e01c8063b179e1e714602d575b600080fd5b4660405190815260200160405180910390f3fea26469706673582212200ab2fe344c609c675dfb009b4277fc1892ddd3c5247d73679f7b2d237318102d64736f6c634300080a0033",
  "linkReferences": {},
  "deployedLinkReferences": {}
}