{
  "_format": "hh-sol-artifact-1",
  "contractName": "BurnGas",
  "sourceName": "contracts/BurnGas.sol",
  "abi": [
    {
      "inputs": [
        {
          "internalType": "uint256",
          "name": "count",
          "type": "uint256"
        }
      ],
      "name": "burnGas",
      "outputs": [],
      "stateMutability": "nonpayable",
      "type": "function"
    }
  ],
  "bytecode": "0x608060405234801561001057600080fd5b50610105806100206000396000f3fe6080604052348015600f57600080fd5b506004361060285760003560e01c80634ad5d16f14602d575b600080fd5b603c6038366004608f565b603e565b005b60005b81811015608b5760008054600181018255908052600a7f290decd9548b62a8d60345a988386fc84ba6bc95484008f6362f93160ef3e563909101558060848160a7565b9150506041565b5050565b60006020828403121560a057600080fd5b5035919050565b600060001982141560c857634e487b7160e01b600052601160045260246000fd5b506001019056fea26469706673582212202c7ef50f50779a843a089eaeeb67be7b03329f0e8cd168a1f06dc89d59c9b3c664736f6c634300080a0033",
  "linkReferences": {},
  "deployedLinkReferences": {}
}