{
  "contracts/ChainID.sol": {
    "TestChainID": {
      "abi": [
        {
          "inputs": [],
          "name": "currentChainID",
          "outputs": [
            {
              "internalType": "uint256",
              "name": "",
              "type": "uint256"
            }
          ],
          "stateMutability": "view",
          "type": "function"
        }
      ],
      "evm": {
        "bytecode": {
          "linkReferences": {},
          "object": "6080604052348015600f57600080fd5b50607680601d6000396000f3fe6080604052348015600f57600080fd5b506004361060285760003560e01c8063b179e1e714602d575b600080fd5b4660405190815260200160405180910390f3fea26469706673582212200ab2fe344c609c675dfb009b4277fc1892ddd3c5247d73679f7b2d237318102d64736f6c634300080a0033",
          "opcodes": "PUSH1 0x80 PUSH1 0x40 MSTORE CALLVALUE DUP1 ISZERO PUSH1 0xF JUMPI PUSH1 0x0 DUP1 REVERT JUMPDEST POP PUSH1 0x76 DUP1 PUSH1 0x1D PUSH1 0x0 CODECOPY PUSH1 0x0 RETURN INVALID PUSH1 0x80 PUSH1 0x40 MSTORE CALLVALUE DUP1 ISZERO PUSH1 0xF JUMPI PUSH1 0x0 DUP1 REVERT JUMPDEST POP PUSH1 0x4 CALLDATASIZE LT PUSH1 0x28 JUMPI PUSH1 0x0 CALLDATALOAD PUSH1 0xE0 SHR DUP1 PUSH4 0xB179E1E7 EQ PUSH1 0x2D JUMPI JUMPDEST PUSH1 0x0 DUP1 REVERT JUMPDEST CHAINID PUSH1 0x40 MLOAD SWAP1 DUP2 MSTORE PUSH1 0x20 ADD PUSH1 0x40 MLOAD DUP1 SWAP2 SUB SWAP1 RETURN INVALID LOG2 PUSH5 0x6970667358 0x22 SLT KECCAK256 EXP 0xB2 INVALID CALLVALUE 0x4C PUSH1 0x9C PUSH8 0x5DFB009B4277FC18 SWAP3 0xDD 0xD3 0xC5 0x24 PUSH30 0x73679F7B2D237318102D64736F6C634300080A0033000000000000000000 "
        },
        "methodIdentifiers": {
          "currentChainID()": "b179e1e7"
        }
      }
    }
  }
}